:020000040800F2
:1000000000000220995B0008295800082B580008BE
:100010002D5800082F580008315800080000000033
:10002000000000000000000000000000335800083D
:1000300035580008000000003758000839580008FB
:10004000E95B0008E95B0008E95B0008E95B000880
:10005000E95B0008E95B0008E95B0008E95B000870
:10006000E95B0008E95B0008E95B0008E95B000860
:10007000E95B0008E95B0008E95B0008E95B000850
:10008000E95B0008E95B0008E95B0008000000008C
:10009000000000000000000000000000E95B000814
:1000A000E95B0008E95B0008E95B0008E95B000820
:1000B000E95B0008E95B0008E95B0008E95B000810
:1000C000E95B0008E95B0008E95B0008E95B000800
:1000D000E95B0008E95B0008E95B0008000000003C
:1000E000E95B0008E95B0008E95B0008000000002C
:1000F000000000000000000000000000E95B0008B4
:1001000000000000E95B0008E95B0008E95B00080B
:1001100000000000000000000000000000000000DF
:10012000E95B0008E95B0008E95B0008E95B00089F
:10013000E95B000800000000000000000000000073
:10014000000000000000000000000000415800080E
:10015000E95B0008E95B0008E95B0008E95B00086F
:10016000E95B0008E95B00080000000000000000F7
:10017000000000000000000000000000000000007F
:1001800000000000E95B0008000000000000000023
:08019000E95B0008E95B0008CF
:1001980010B5054C237833B9044B13B10448AFF3B9
:1001A80000800123237010BDE00000200000000043
:1001B800E45D000808B5034B1BB103490348AFF3DE
:1001C800008008BD00000000E4000020E45D000895
:1001D80053B94AB9002908BF00281CBF4FF0FF31A6
:1001E8004FF0FF3000F072B9ADF1080C6DE904CEA4
:1001F80000F006F8DDF804E0DDE9022304B07047FA
:100208002DE9F047089E04468846002B4BD18A42C8
:10021800154667D9B2FA82F24AB1C2F1200701FA4B
:1002280002F320FA07F7954047EA030894404FEA9B
:10023800154E230CB8FBFEF71FFA85FC0EFB17883A
:1002480043EA084307FB0CF1994209D9EB1807F177
:10025800FF3080F01B81994240F21881023F2B4405
:100268005B1AA4B2B3FBFEF00EFB103344EA03445E
:1002780000FB0CFCA44509D92C1900F1FF3380F0D0
:100288000781A44540F2048102382C4440EA074023
:10029800A4EB0C0400271EB1D4400023C6E9004398
:1002A8003946BDE8F0878B4209D9002E00F0EB8073
:1002B8000027C6E9000138463946BDE8F087B3FA99
:1002C80083F7002F47D18B4202D3824200F2FA8093
:1002D800841A61EB030301209846002EE0D0C6E99A
:1002E8000048DDE702B9FFDEB2FA82F2002A40F0E8
:1002F8008F80491B4FEA154E1FFA85F80127B1FB7D
:10030800FEFC230C0EFB1C1143EA014308FB0CF115
:10031800994207D9EB180CF1FF3002D2994200F24A
:10032800CD808446591AA3B2B1FBFEF00EFB10141F
:1003380043EA044408FB00F8A04507D92C1900F14A
:10034800FF3302D2A04500F2B6801846A4EB080499
:1003580040EA0C409FE7C7F1200CBB4022FA0CFE94
:100368004EEA030E01FA07F420FA0CF521FA0CF311
:100378004FEA1E482543B3FBF8F92C0C08FB193348
:100388001FFA8EFA44EA034309FB0AF49C4202FA74
:1003980007F200FA07F10BD91EEB030309F1FF304E
:1003A80080F087809C4240F28480A9F1020973445E
:1003B8001B1BADB2B3FBF8F008FB103345EA03444E
:1003C80000FB0AFAA24508D91EEB040400F1FF332A
:1003D8006BD2A24569D90238744440EA0940A0FBAF
:1003E8000289A4EB0A044C45C2464B4654D351D06B
:1003F800002E69D0B1EB0A0564EB030404FA0CFC87
:10040800FD40FC404CEA0505C6E90054002747E7D3
:10041800C2F1200320FA03F7954001FA02F021FA0D
:1004280003F34FEA154E3843010CB3FBFEF71FFAEE
:1004380085F80EFB173341EA034107FB08F38B42AB
:1004480004FA02F407D9691807F1FF3C2FD28B424E
:100458002DD9023F2944CB1A81B2B3FBFEF00EFB23
:10046800103341EA034100FB08F38B4207D96918AE
:1004780000F1FF3C17D28B4215D902382944C91A1A
:1004880040EA07473BE73746304609E70746E7E6CD
:100498001846FBE64145ABD2B8EB020A69EB0E02FF
:1004A80001381346A4E76046E9E7184695E767462A
:1004B800D1E781467CE702382C4447E7ACF1020CCF
:1004C8002B442FE7384608E73746E9E6704700BF70
:1004D800704710B5044600F0B9F9E2B22021322085
:1004E80000F000FA00222321322000F0FBF910BDB1
:1004F80008B500F0ABF90F21322000F0F7F908BD7C
:1005080008B52421322000F0F1F960F07F02D2B260
:100518002421322000F0E6F908BD10B50446212157
:10052800322000F0E3F900F00C02224321213220AE
:1005380000F0D8F910BD10B504462121322000F092
:10054800D5F900F0F70222432121322000F0CAF940
:1005580010BD30B587B004462321322000F0C6F91B
:1005680005468DF80C002421322000F0BFF928211F
:10057800322000F0BBF98DF804002921322000F068
:10058800B5F98DF805002A21322000F0AFF98DF871
:1005980006002B21322000F0A9F98DF807002C2144
:1005A800322000F0A3F98DF808002D21322000F048
:1005B8009DF98DF8090015F0400F22D0002135E093
:1005C80051004B1C06A8034413F9143C9BB21B02B0
:1005D8009BB2014411F9140C13FA80F321F8083C7A
:1005E8000132D2B2022AEBD99DF80C3003F0300365
:1005F800202B1ED0302B1ED0102B1ED00121002303
:1006080028E00022EEE74A0006AB981810F9143CDF
:100618009BB21B029BB2013206AD2A4412F9142C7C
:1006280013FA82F320F8083C0131C9B20229EAD949
:10063800DAE70421E3E70C21E1E70221DFE706AA74
:1006480002EB430232F9082C12FB01F224F81320C2
:100658000133DBB2022BF2D907B030BD10B5044626
:100668002121322000F042F900F0FB02224321212F
:10067800322000F037F910BD10B50446222132208F
:1006880000F034F940EA0402D2B22221322000F00C
:1006980029F910BD10B504463821322000F026F99A
:1006A80040EA0402D2B23821322000F01BF90A22B3
:1006B8003A21322000F016F905223B21322000F0C1
:1006C80011F905223C21322000F00CF932223D219B
:1006D800104600F007F910BD08B500F0D9F88020E1
:1006E800FFF7CAFF0420FFF7B9FF1020FFF7D2FF7A
:1006F80008BD000030B589B0002501951D4C236C5C
:1007080043F400132364236C03F400130193019B47
:100718000295236B43F002032363236B03F0020368
:100728000293029B4FF410730393122304930595CD
:10073800022306930423079303A90F4800F004FA41
:10074800236A43F400132362236A23F40013236209
:100758002A460F211F2000F083F91F2000F0C6F958
:100768002A460F21202000F07BF9202000F0BEF956
:1007780009B030BD003802400004024010B50E48F0
:1007880001F0BCFF00B110BD0C4C0D4BA365432319
:1007980063660C4BE365002323664FF48042A26630
:1007A800E36623676367A36758342046FFF7A2FF11
:1007B800204601F0EBFBE6E754010020FC00002096
:1007C80000540040A086010008B5034801F030FD40
:1007D800FFF7D4FF08BD00BF5401002010B586B054
:1007E80006AC04F8012D084B5B68029301230193C2
:1007F80000940A460146054801F04AFD08B906B0CA
:1008080010BDFFF7E1FFFAE7340000205401002093
:1008180000B587B006AA002302F8013D094B5B68C2
:1008280002930123019300920A460146064801F00B
:10083800EFFD20B99DF8170007B05DF804FBFFF73E
:10084800C3FFF7E7340000205401002000B587B04B
:10085800002300930C4A116B41F010011163126BD5
:1008680002F010020092009A04220192029303936C
:10087800022304930DEB0201044800F065F9FFF729
:100888007DFF07B05DF804FB00380240001002400D
:1008980010B586B0002400940F4B1A6B42F010027A
:1008A8001A631B6B03F010030093009B3023019322
:1008B8000A4B029302230493039401A9084800F009
:1008C80043F922460F210A2000F0CAF80A2000F056
:1008D8000DF906B010BD00BF00380240000011102D
:1008E8000010024008B5FFF779FF08BD08B5FFF70B
:1008F8008FFF08BD10B50A4B9B68984733280CD169
:10090800084C074B23601B6840F64700984723684C
:100918009B6A90209847002010BD0120FCE700BF8B
:1009280000000020A80100200A4B1B681B6B7BB14C
:1009380010B504469847074B1A68074B9A4200D0EF
:1009480010BDB4F90030628822805B426380F7E70B
:10095800704700BFA80100200000002010B5044621
:100968000E4B18784FF47A73B3FBF0F30C4A106807
:10097800B0FBF3F000F0D2F868B90F2C01D90120D0
:100988000AE0002221464FF0FF3000F069F8034BDF
:100998005C60002000E0012010BD00BF5000002076
:1009A8007800002008B50B4B1A6842F400721A60F0
:1009B8001A6842F480621A601A6842F480721A60F7
:1009C800032000F02FF80020FFF7C8FF04F00CFF09
:1009D800002008BD003C0240034A1168034B1B7805
:1009E8000B441360704700BFC40100205000002072
:1009F800014B1868704700BFC401002038B5044691
:100A0800FFF7F6FF0546B4F1FF3F02D0044B1B7811
:100A18001C44FFF7EDFF401BA042FAD338BD00BFCE
:100A28005000002010B50446C31E042B0FD80A4AF4
:100A3800D36823F4E0631B041B0C240204F4E06471
:100A4800234343F0BF6343F40033D36010BD9221C6
:100A5800024804F070FEEAE700ED00E0145E0008CA
:100A680070B505460C4616460F2A25D80F2C28D8EF
:100A78001B4BDB68C3F30223C3F10702042A28BF18
:100A88000422191D062921D9033B4FF0FF3101FA31
:100A980002F224EA02049C4001FA03F326EA030660
:100AA8003443002D14DB2401E4B205F1604505F55B
:100AB800614585F8004370BDAA210A4804F03BFE51
:100AC800D4E7AB21074804F036FED1E70023DCE782
:100AD80005F00F052401E4B2034B5C55EBE700BFBA
:100AE80000ED00E0145E000814ED00E010B5041EEF
:100AF8000ADB002C07DB04F01F0264090123934082
:100B0800044A42F8243010BDBE21034804F013FE05
:100B1800EFE700BF00E100E0145E00080138B0F123
:100B2800807F0AD2064B5860064AF02182F82310CB
:100B38000020986007221A6070470120704700BFA4
:100B480010E000E000ED00E02DE9F04383B08046BE
:100B58000E46A24B984217D003F58063984213D0F3
:100B680003F5806398420FD003F5806398420BD059
:100B780003F58063984207D003F54063984203D099
:100B8800B321974804F0D7FD33689AB212B11B0C11
:100B98001B041BB1B421924804F0CDFD7368012BEE
:100BA8001ED9112B1CD0022B1AD0122B18D08D4A0B
:100BB800934215D002F58012934211D002F58012AB
:100BC80093420DD0A2F5F812934209D002F5801293
:100BD800934205D002F58012934201D0032B04D131
:100BE800B368022B06D8002445E0B5217C4804F000
:100BF800A2FDF5E7B6217A4804F09DFDF3E7C82188
:100C0800774804F098FD4AE0042300E000238B4075
:100C180003430232744941F82230744B1A68FB438B
:100C280003EA0201706810F4803F01D047EA02012C
:100C38006E4A1160526803EA0201706810F4003FBE
:100C480001D047EA0201694A5160926803EA020149
:100C5800706810F4801F01D047EA0201634A91606E
:100C6800D2681340716811F4001F01D047EA0203EB
:100C78005E4AD36001340F2C00F2AC800125A540F8
:100C880037682F40BD42F5D173685A1E012A03D92F
:100C9800112B01D0122B19D1F368032BAFD8D8F838
:100CA8000820610003238B4022EA0302F3688B408B
:100CB8001343C8F80830D8F8042022EA05027368FC
:100CC800C3F30015A5401543C8F80450D8F80C2004
:100CD8004FEA4409032505FA09F5ED432A40B368AC
:100CE80003FA09F31343C8F80C307368022B01D0D8
:100CF800122B2BD13369CBB1092B17D0012B15D06F
:100D0800022B13D0042B11D0052B0FD0062B0DD09E
:100D1800072B0BD0082B09D00A2B07D00C2B05D09A
:100D28000F2B03D0E0212E4804F005FDE20808321D
:100D380058F8220004F0070399000F238B4020EA9B
:100D4800030033698B40034348F82230D8F8003059
:100D58001D40736803F0030303FA09F31D43C8F841
:100D68000050736813F0805F84D000230193204BF8
:100D78005A6C42F480425A645B6C03F480430193DA
:100D8800019BA208911C184B53F8210004F003039F
:100D980099000F238B4020EA0300104B98453FF43D
:100DA80035AF03F5806398450ED003F58063984509
:100DB8000CD003F5806398450AD003F58063984505
:100DC8003FF422AF072322E7012320E702231EE78F
:100DD80003231CE703B0BDE8F08300BF0000024016
:100DE800505E00080000111000380140003C01402E
:100DF80000380240F8B504460D46494B984218D0D1
:100E080003F58063984214D003F58063984210D0AC
:100E180003F5806398420CD003F58063984208D0AC
:100E280003F54063984204D04FF498713D4804F0AC
:100E380082FC002327E0042700E0002707FA00F0DF
:100E4800B04253D020685E000321B140C943084036
:100E58002060D808083054F8206003F007074FEAEC
:100E6800870C0F2707FA0CF726EA070644F82060D4
:100E7800E0680840E060606820EA02026260A268F8
:100E88001140A16001330F2B48D801229A4002EA91
:100E980005018A42F6D14FEA930E0EF10206224866
:100EA80050F8266003F0030080004FF00F0C0CFA96
:100EB80000FC0CEA06061A4FBC42BED007F5806754
:100EC800BC420DD007F58067BC420BD007F58067A0
:100ED800BC4209D007F58067BC42ACD00727ADE714
:100EE8000127ABE70227A9E70327A7E70F4806680A
:100EF800C9430E40066046680E40466086680E404C
:100F08008660C6683140C160074E0EF1020156F88E
:100F1800210020EA0C0046F8210093E7F8BD00BF45
:100F280000000240505E000800380140003C0140CB
:100F380070B5064615460C4629B1012D09D875B974
:100F48002404B46170BD40F29F11064804F0F3FB1D
:100F5800F3E74FF4D071034804F0EDFBEFE7B46119
:100F6800F0E700BF505E0008F8B50668346A04F080
:100F78000F07C4F34343C4F30A14022B2ED16CB3F6
:100F880007EB8702D3000344596C39B30546224660
:100F9800304602F075FEBA003A44D3002B445A6C2E
:100FA80022445A64DA6C2244DA6406EB4713D3F815
:100FB80010150B4A0A408AB1D3F8002522F0804266
:100FC80042F00042C3F80025BB00D919CA002A44E0
:100FD80092F8503083F0010382F85030F8BD00BF1A
:100FE8000000F81FF0B585B09DF828509DF82C60DA
:100FF800BDF8307090F8B842012C41D0012480F837
:10100800B8424FEA810C8C444FEACC0404444FF0B8
:10101800000C84F83DC084F83830A4F8407084F897
:10102800391084F83F6002F07F0C84F83AC012F05F
:10103800800F1BD101EB810C4FEACC0404444FF024
:10104800000C84F83BC0044601EB810C4FEACC004D
:10105800204480F83C50029701960095206802F0E1
:101068001BFF002384F8B83205B0F0BD01EB810CFA
:101078004FEACC0404444FF0010C84F83BC0E2E78B
:101088000220F1E790F8B832012B0BD010B50446D6
:10109800012380F8B832006802F087FF002084F846
:1010A800B80210BD0220704700284ED0F0B58BB0B2
:1010B80006460368B3F1A04F03D07A21244804F010
:1010C8003AFB346896F8B932002B38D0032386F8F7
:1010D800B932E36B13F4807F01D1002333613068A8
:1010E80002F075FD344654F810CB6D460FCC0FC591
:1010F8000FCC0FC594E8030085E80300371D97E877
:101108000E00604602F018FD0121306802F065FD0E
:10111800344654F810CB6D460FCC0FC50FCC0FC515
:1011280094E8030085E8030097E80E00604602F0A3
:1011380025FE012386F8B93200200BB0F0BD86F8F1
:10114800B832304604F0EAFBC0E70120704700BF20
:101158008C5E0008F8B59DF81870BDF820608D0009
:101168000D44EC00044484F83B2084F83F306FB908
:1011780001EB8105EC000444032584F84250032B5D
:1011880000F29680DFE803F00A8D2F5E01EB8105FF
:10119800EC000444022584F84250F0E7012F40F0A7
:1011A8008780002A40F0848036B901EB8102D300A1
:1011B8000344012283F8512001EB8102D300034448
:1011C80093F851303BB901EB8102D300034400226C
:1011D80083F842206CE001EB8102D3000344022231
:1011E80083F8422064E0B2B901EB8102D3000344E2
:1011F80093F851303BB901EB8102D300034400223C
:1012080083F8422054E001EB8102D3000344022218
:1012180083F842204CE001EB8102D300034493F8A9
:1012280050303BB901EB8102D3000344002283F81C
:1012380042203DE001EB8102D3000344022283F8FF
:10124800422035E0B2B901EB8102D300034493F8A0
:1012580051303BB901EB8102D3000344002283F8EB
:10126800422025E001EB8102D3000344022283F8E7
:1012780042201DE001EB8102D300034493F8503073
:101288003BB901EB8102D3000344002283F84220DA
:101298000EE001EB8102D3000344022283F84220CE
:1012A80006E001EB8102D3000344002283F84220C8
:1012B8008A005418E3000344079C5C649E6400247D
:1012C80083F85C40DC6483F8391083F85D4011448E
:1012D800CB0003F13801027C0144006802F0E0FE13
:1012E800F8BD30B583B005460468D4F8403401939E
:1012F800D4F840340093009B23F02E030093019B05
:1013080013F0020F07D0019B13F0010F28D1009BA7
:1013180043F002030093019B13F0080F13D0009BC6
:1013280043F008030093019B13F0040F34D0AB691A
:10133800022B1CD0EB68012B29D0284604F04FFB68
:10134800284604F03FFB019B13F0200F03D0009BBD
:1013580043F020030093009BC4F8403403B030BD31
:10136800A36923F00053A36104F02CFBCFE7019B92
:1013780003F4C023B3F5802F04D00121286802F0BC
:101388009BFCDAE70221286802F096FCD5E74EF6C6
:101398006022C4F80424D0E7284604F026FBD4F8D9
:1013A800403423F02E03C4F840342A68936943F08C
:1013B80000539361C7E7F8B506460D46076807EB83
:1013C800411707F5A064A36813F0040F3ED0042367
:1013D800A360E36843F00203E360A36813F4007FAB
:1013E8006AD1A36813F0010F00F0878033694BB10D
:1013F800AA002A44D30033449A6C2169C1F312012C
:10140800521ADA64AA002A44D3003344012283F82A
:101418005D2000219965A26093F83F30002B57D0DA
:10142800022B55D0032B5DD1D7F8003543F000537C
:10143800C7F8003505EB8502D3003344012283F851
:101448005C202946304604F0C9FA4BE0A36813F043
:10145800200F02D02023A360BFE7A36813F0080F72
:1014680017D1A36813F4806FB7D0E36843F0020381
:10147800E360006802F099FD1023A36005EB850284
:10148800D3003344082283F85D204FF48063A360BF
:10149800A3E7E36843F00203E36001EB8102D300B2
:1014A8000344052283F85D201023A3600823A3606A
:1014B800006802F07AFD90E7E36843F00203E36016
:1014C8002946306802F071FD4FF40073A36013E001
:1014D800E36843F00203E3602946306802F065FDE3
:1014E8001023A360AB005919CA00324492F8503057
:1014F80083F0010382F85030F8BDA36813F0020F9F
:1015080062D0E36823F00203E36005EB8502D300B1
:10151800334493F85D30012B17D0052B29D0062BC7
:101528002FD0082B2DD0032B16D105EB8502D30025
:101538003344022283F85C20D7F8003523F0804337
:1015480043F00043C7F8003506E005EB8502D300F9
:101558003344012283F85C200223A36005EB850253
:10156800D300334493F85C202946304604F036FA19
:10157800C2E705EB8502D3003344052283F85C20DB
:10158800EAE7AA002A44D30033449A6D01329A65E7
:10159800032A11D9AA002A44D300334400229A65A9
:1015A800042283F85C20D7F8003523F0804343F009
:1015B8000043C7F80035CFE705EB8502D300334475
:1015C800022283F85C20EEE7A36813F0800F19D19C
:1015D800A36813F0100F8FD005EB8502D3003344B6
:1015E80093F83F30032B25D00BB1022B07D105EB25
:1015F8008502D300334400229A6533694BB3102324
:10160800A36079E7E36843F00203E360AB0059198C
:10161800CA003244916D013191652B44DA0032449D
:10162800062382F85D302946306802F0BEFC80232C
:10163800A36061E705EB8502D300334400229A6575
:10164800E36843F00203E3602946306802F0ADFC2A
:10165800D5E705EB8502D3003344032283F85D20E8
:10166800E36843F00203E3602946306802F09DFC1A
:10167800C5E7F8B5036803EB411303F5A064A26856
:1016880012F0040F24D10E460546A26812F0200F6E
:1016980025D02023A36001EB8102D3001A4603441E
:1016A80093F83D30012B19D18B000244002182F8B8
:1016B8003D103344DA000244022382F85C30E368C8
:1016C80043F00203E3603146006802F06EFC05E077
:1016D8000423A360E36843F00203E360F8BDA26853
:1016E80012F0400F34D1A26812F4007F4AD1A268E8
:1016F80012F0010F51D1A26812F0080F62D1A2684E
:1017080012F0100F6FD08A000A44D300034400225D
:101718009A65032283F85D2093F83D306BB901EB9D
:101728008102D300034493F83C3033B901EB8102C2
:10173800D3000344012283F83D20E36843F0020309
:10174800E3603146286802F030FC1023A360C5E747
:101758008B005918CA000244042182F85D10012147
:1017680082F83D103344DA00024400239365E368AD
:1017780043F00203E3603146006802F016FC4023A0
:10178800A360ABE7E36843F00203E360006802F09C
:101798000CFC4FF40073A360A0E78F007A18D30005
:1017A800034400229A65E36843F00203E36000689B
:1017B80002F0FBFB0123A360B919C800284480F894
:1017C8005D308BE70823A360E36843F00203E3601E
:1017D800006802F0EAFB06EB8601C80028440523EE
:1017E80080F85D307AE7A26812F0800F39D1A268DC
:1017F80012F4806F46D1A26812F0020F3FF46EAF68
:10180800E26822F00202E26001EB8101CA0011469F
:10181800024492F85D20012A48D0032A5AD0042AAB
:101828006CD0052A72D0062A01D0082A59D1B100F5
:101838003144CA002A44916D0131916503296BD95D
:10184800282202FB065200219165042182F85C10CF
:10185800D3F8002522F0804242F00042C3F8002568
:101868003FE0E36843F00203E360006802F09DFB99
:1018780006EB8601CB002B44062283F85D208023EB
:10188800A3602BE7E36843F00203E360006802F01B
:101898008CFB1023A3604FF48063A36006EB8601E2
:1018A800CB002B44082283F85D2017E70B4603443E
:1018B800012283F85C2093F83F30023BDBB293426D
:1018C8000FD80B46034493F8512082F0010283F8A5
:1018D800512006E006EB8602D3000344022283F877
:1018E8005C200223A36006EB8602D3002B4493F806
:1018F8005C203146284604F071F8EFE606EB8602D4
:10190800D3000344022283F85C20EAE7282303FB80
:10191800060383F85C20E4E7282202FB0652022132
:1019280082F85C1094E7F8B504460568284602F08A
:10193800BFF9012800D0F8BD206802F0B5F90028E9
:10194800F9D0206802F0B0F910F4001F03D0236822
:101958004FF400125A61206802F0A6F910F4801FB3
:1019680003D023684FF480125A61206802F09CF972
:1019780010F0806F03D023684FF080625A612068AE
:1019880002F092F910F0020F02D0236802225A6185
:10199800206802F089F910F0005F25D1206802F074
:1019A80083F910F0807F31D1206802F07DF910F0C2
:1019B800080F2FD1206802F077F910F0007F30D19E
:1019C800206802F071F910F0100FB4D02268936902
:1019D80023F0100393612046FFF7C6FA2268936943
:1019E80043F010039361A6E7D5F8403423F02E03A3
:1019F800C5F84034204603F0EBFF0121206802F0CF
:101A08005BF923684FF000525A61C7E72046FFF799
:101A180068FCC9E7204603F0CFFF236808225A6113
:101A2800C8E7206802F0BCFA0746002604E0F1B2D5
:101A38002046FFF71EFE0136A368B34212D906F00E
:101A48000F0327FA03F313F0010FF4D005EB461345
:101A5800D3F8003513F4004FE9D0F1B22046FFF770
:101A6800AAFCE8E723684FF000725A61A8E738B586
:101A780090F8B832012B0ED00446012580F8B852F0
:101A8800006802F09EF82946206802F054F9002008
:101A980084F8B80238BD0220FCE790F8B832012B70
:101AA8000BD010B50446012380F8B832006802F064
:101AB800A3FB002084F8B80210BD0220704708B5C7
:101AC800006802F019F908BD01EB8101CB00184448
:101AD80090F85C00704701EB8101CB001844C06CA2
:101AE800704708B5006802F0D2F908BD08B500686B
:101AF80002F0C2F908BD03685A6912F4806F11D068
:101B08006FF480625A6100230363202280F83D202D
:101B180080F83E30026C42F00402026480F83C30E7
:101B28000120704700207047F8B506460C46174656
:101B38001D4622E0FEF75CFF069BC01AA84200D8AB
:101B4800DDB900233363202286F83D2086F83E3035
:101B5800326C42F02002326486F83C3001201AE0F0
:101B680033685B6924EA03039BB2B3FA83F35B0926
:101B78009F420FD1B5F1FF3FDCD1C4F30743012BDE
:101B8800EED033689B6924EA03039BB2B3FA83F36C
:101B98005B09EDE70020F8BDF8B504460D4616468A
:101BA8001F463CE01A6842F400721A6023686FF41A
:101BB80080625A6100232363202284F83D2084F840
:101BC8003E30226C42F00402226484F83C3001204A
:101BD80033E0FEF70DFFC01BB04200D8FEB900236A
:101BE8002363202284F83D2084F83E30226C42F0A2
:101BF8002002226484F83C3001201EE023685B69DF
:101C080025EA03039BB2003318BF0123A3B123685D
:101C18005A6912F4806FC5D1B6F1FF3FD9D1C5F327
:101C28000743012BEAD023689B6925EA03039BB28B
:101C3800003318BF0123E9E70020F8BD70B504465A
:101C48000D46164623685B6913F0800F1CD12046A9
:101C5800FFF751FFD0B9B5F1FF3FF3D0FEF7C8FE4B
:101C6800801BA84201D8002DECD100232363202239
:101C780084F83D2084F83E30226C42F02002226431
:101C880084F83C30012000E0002070BD0120FCE712
:101C98002DE9F04184B00446884616461F460B9D40
:101CA8000268136843F48073136000950A9B00224E
:101CB8004FF00111FFF738FF60B123681B6813F478
:101CC800807F4FD04FF4007323640323184604B079
:101CD800BDE8F081226808F0FE0313612B460A9ADA
:101CE80021492046FFF758FF08B10123EEE70023FA
:101CF800039323685A6903929B690393039B2A46BB
:101D08000A992046FFF79AFF034658B1236C042B23
:101D180001D00123DAE72268136843F400731360E3
:101D28000123D3E7012F0ED02368320A1A612A460D
:101D38000A992046FFF782FF034678B1236C042BEB
:101D480005D00123C2E72268F6B21661BEE7226811
:101D5800136843F4007313600123B7E72268F6B2EF
:101D68001661B3E70323B1E7020001002DE9F04152
:101D780084B004460E46174698460B9D02681368C1
:101D880043F4806313600268136843F4807313603C
:101D980000950A9B00224FF00111FFF7C5FE68B1BC
:101DA80023681B6813F4807F00F089804FF4007368
:101DB80023640323184604B0BDE8F081F6B2236813
:101DC80006F0FE021A612B460A9A3F492046FFF7A1
:101DD800E3FE08B10123EDE70023039323685A6962
:101DE80003929B690393039B2A460A992046FFF7AF
:101DF80025FF58B1236C042B01D00123DAE72268B0
:101E0800136843F4007313600123D3E7B8F1010F9B
:101E18000DD12368FFB21F612A460A992046FFF7B1
:101E28000DFF20B3236C042B1AD00123C2E72368CB
:101E38003A0A1A612A460A992046FFF7FFFE58B166
:101E4800236C042B01D00123B4E72268136843F400
:101E5800007313600123ADE72368FFB21F61DBE75E
:101E68002268136843F4007313600123A2E7226811
:101E7800136843F48073136000950A9B00224FF0A7
:101E880001112046FFF750FE48B123681B6813F480
:101E9800807F16D04FF40073236403238AE72368F6
:101EA80046F001061E612B460A9A07492046FFF7AD
:101EB80073FE034600283FF47DAF01237AE703232E
:101EC80078E7032376E700BF0200010070B50446F7
:101ED8000D46164623685B6913F0040F1CD1204693
:101EE800FFF709FED0B9B5F1FF3FF3D0FEF780FD4B
:101EF800801BA84201D8002DECD1002323632022A7
:101F080084F83D2084F83E30226C42F0200222649E
:101F180084F83C30012000E0002070BD0120FCE77F
:101F280070B505460C4616462B685A6912F0400FE4
:101F380029D15A6912F0100F15D1FEF759FD801BEF
:101F4800A04201D8002CEFD100232B63202285F872
:101F58003D2085F83E302A6C42F020022A6485F83C
:101F68003C30012070BD6FF010025A6100232B63D2
:101F7800202285F83D2085F83E302A6C2A6485F8B1
:101F88003C300120EEE70020ECE70000002800F0DC
:101F98003B81F8B5044603689D4A93420CD002F58C
:101FA8008062934208D002F58062934204D040F2E6
:101FB800BD11984803F0BFFB6368013B964A934202
:101FC80000F2A580A3681BB1B3F5804F40F0A5804F
:101FD800E36823F47F7323F00303002B40F0A3800E
:101FE8002369B3F5804F03D0B3F5404F40F0A1808B
:101FF8006369012B00F2A380A36933F0FE0340F06C
:10200800A480E36913B1402B40F0A580236A13B183
:10201800802B40F0A68094F83D30002B00F0A7807C
:10202800242384F83D302268136823F001031360E9
:102038002268136843F4004313602268136823F48A
:102048000043136001F0D6FA6268744B9A4200F2BA
:102058009480734B98428CBF00230123002B40F0DF
:10206800D580704BA3FB00239B0C21684A6822F0A3
:102078003F021A434A6025682A6A22F03F026668CE
:1020880066498E427FD8013313432B622568E9697C
:1020980021F44F4121F0FF016368604A93427CD8E4
:1020A80001385B00B0FBF3F30133C3F30B03042BDC
:1020B80038BF04230B43EB6121680B6823F0C0038E
:1020C800E269206A024313430B6021688B6823F49A
:1020D800034323F0FF032269E068024313438B6044
:1020E8002168CB6823F0FF036269A06902431343A8
:1020F800CB602268136843F001031360002020645A
:10210800202384F83D30206384F83E00F8BD4FF466
:10211800DF71404803F00FFB54E740F2BF113D4820
:1021280003F009FB54E74FF4E0713A4803F003FB6E
:1021380056E740F2C111374803F0FDFA58E74FF46B
:10214800E171344803F0F7FA56E740F2C311314819
:1021580003F0F1FA55E74FF4E2712E4803F0EBFA79
:1021680054E740F2C5112B4803F0E5FA53E784F829
:102178003C30204603F024F952E72B4B98428CBFA1
:10218800002301236AE74FF4967101FB03F3274903
:10219800A1FB03139B09013376E7A268BAB9461E6F
:1021A80003EB4307B6FBF7F60136C6F30B06B6FAA0
:1021B80086F6760936BBC2B9013803EB4303B0FB98
:1021C800F3F30133C3F30B0242F4004372E7461EF4
:1021D80003EB830707EB8707B6FBF7F60136C6F371
:1021E8000B06B6FA86F67609E4E7013803EB8303B3
:1021F80003EB8303B0FBF3F20132C2F30B0242F4A8
:10220800404357E7012355E70120704701207DE748
:1022180000540040C45E00087F1A0600A086010032
:102228007F841E0083DE1B43FF083D00D34D6210F0
:1022380038B310B504460368134A93420CD002F52C
:102248008062934208D002F58062934204D040F243
:102258002D210E4803F06FFA242384F83D302268BC
:10226800136823F001031360204603F0E1F800200F
:10227800206484F83D00206384F83E0084F83C0024
:1022880010BD0120704700BF00540040C45E000824
:102298002DE9F04182B004460F4690461E46FEF7EF
:1022A800A7FB0546012E01D0102E09D194F83D3028
:1022B800DBB2202B0AD00223184602B0BDE8F08119
:1022C80040F673114F4803F036FAEFE700951923EB
:1022D80001224D492046FFF727FC002840F08B805B
:1022E80094F83C30012B00F08880012384F83C30BE
:1022F80023681A6812F0010F03D11A6842F001022C
:102308001A602268136823F400631360212384F899
:102318003D30402384F83E3000232364089B6362E9
:10232800BDF824306385638D2385384BE3620195BE
:102338000A9B00933346424639462046FFF7A8FCDD
:1023480000285CD1238D002B34D02A460A992046D8
:10235800FFF774FC10BB626A236812781A61616A1D
:102368004B1C6362238D013B9BB22385628D013A2E
:1023780092B262852268506910F0040FE2D0002BF7
:10238800E0D04B781361636A01336362238D013BAC
:102398002385638D013B9BB26385D3E7236C042BB4
:1023A80001D0012388E72268136843F4007313609F
:1023B800012381E72A460A992046FFF787FD03464D
:1023C80058B1236C042B01D0012375E722681368E8
:1023D80043F40073136001236EE721680A6842F42E
:1023E80000720A60202284F83D20002284F83E20F2
:1023F80084F83C2060E702235EE702235CE70123C0
:102408005AE700BFC45E0008020010000000FFFF8A
:102418002DE9F04186B004460F4690461E46FEF769
:10242800E7FA0546012E01D0102E09D194F83D3067
:10243800DBB2202B0AD00226304606B0BDE8F08178
:1024480040F6EE119C4803F076F9EFE70095192362
:1024580001229A492046FFF767FB002840F03D819A
:1024680094F83C30012B00F03A81012384F83C3089
:1024780023681A6812F0010F03D11A6842F00102AA
:102488001A602268136823F400631360222384F817
:102498003D30402384F83E30002323640C9B636264
:1024A800BDF834306385638D2385854BE3620195E0
:1024B8000E9B00933346424639462046FFF756FCAA
:1024C8000646002840F00D81238D5BB902932368EE
:1024D8005A6902929A690292029A1A6842F4007240
:1024E8001A6072E0012B0AD0022B1AD00023059340
:1024F80023685A6905929B690593059B65E02268E4
:10250800136823F4806313600023039323685A69D4
:1025180003929A690392039A1A6842F400721A6045
:1025280053E02268136823F48063136022681368F9
:1025380043F4006313600023049323685A690492E8
:102548009B690493049B40E02A460E992046FFF7B6
:10255800E7FC002840F0C78023681A69636A1A708C
:10256800636A01336362238D013B2385638D013BDD
:102578009BB2638529E000950E9B002251492046B5
:10258800FFF7D2FA002840F0B0802268136843F4BD
:102598000073136023681A69636A1A70626A531CAD
:1025A8006362238D013B2385638D013B9BB2638569
:1025B80023681B695370636A01336362238D013B8F
:1025C8002385638D013B9BB26385238D002B7BD0D4
:1025D800032B49D8012BB7D0022BCCD000950E9BEA
:1025E800002238492046FFF79FFA00287FD1226849
:1025F800136823F48063136023681A69636A1A7086
:10260800636A01336362238D013B2385638D013B3C
:102618009BB2638500950E9B00222A492046FFF74E
:1026280083FA002865D12268136843F400731360A5
:1026380023681A69636A1A70626A531C6362238D7D
:10264800013B2385638D013B9BB2638523681B692E
:102658005370636A01336362238D013B2385638D65
:10266800013B9BB26385B0E72A460E992046FFF7E7
:1026780057FC00283FD123681A69636A1A70626A96
:10268800531C6362238D013B2385638D013B9BB201
:1026980063852368596911F0040F96D01B6953703C
:1026A800636A01336362238D013B2385638D013B9C
:1026B8009BB2638589E700BFC45E00080200100072
:1026C8000000FFFF04000100202384F83D300023B0
:1026D80084F83E3084F83C30AEE60226ACE60226AA
:1026E800AAE60126A8E60126A6E60126A4E6012612
:1026F800A2E60126A0E601269EE600BF90F83D006E
:1027080070470000002800F03E8170B50446036859
:102718009E4A934214D0A2F57842934210D002F513
:10272800806293420CD002F57842934208D002F5B9
:10273800E052934204D040F21511954802F0FBFF95
:10274800636843B1B3F5807F05D0B3F5007F02D04D
:10275800B3F5407F7FD1A3683BB1102B05D0202B68
:1027680003D0302B01D0B02B7BD1E368012B03D9E8
:10277800032B01D0052B7AD12369B3F5007F01D053
:10278800002B7AD16369A3F5FA51824A914201D9A3
:10279800022B78D1A3690BB1082B7AD1E369012BFD
:1027A8007DD894F84130002B7FD0022284F8412054
:1027B8002168CB6923F47B6323F00F03CB61236883
:1027C8001A626369934200F09280E368002B74D127
:1027D8001025A368202B00D86D00012001F080F897
:1027E8002369B3F5007F6AD0B0FBF5F000EB8000F9
:1027F80043006269B3FBF2F30533674AA2FB032384
:10280800DB0803F001029B1A5B081202991EFD29DE
:102818006FD821690A43216813430B622168CB6989
:1028280023F47B6323F00F036268A0680243E06827
:102838000243A0690243134343F40063CB61236A54
:10284800012B5CD8236A012B5FD000206064012330
:1028580084F8413070BD4FF48B714D4802F06BFF26
:1028680079E740F217114A4802F065FF7DE74FF417
:102878008C71474802F05FFF7EE740F21911444827
:1028880002F059FF7EE74FF48D71414802F053FF83
:1028980080E740F21B113E4802F04DFF7EE74FF4FF
:1028A8008E713B4802F047FF7BE784F840303B4B92
:1028B8006363204602F010FE77E7202589E7E36886
:1028C80053B1AD00B0FBF5F000EB80004300626946
:1028D800B3FBF2F3053390E7ED00B0FBF5F000EB46
:1028E800800043006269B3FBF2F3053385E70022F9
:1028F8008CE7636C43F0100363640120AAE740F29D
:10290800B711234802F017FF9CE7254B6363226841
:10291800244B9A421FD04FF04022D36923F47B63A3
:1029280023F00F03D36122681E4B9A4215D04FF053
:10293800402302221A6222681A4B9A4210D04FF0A2
:102948004021CA6992B26368B3F5007F0AD0C3B95F
:102958004FF4807608E0144ADFE7A3F58063E8E7E0
:102968001149EEE74FF48076A068E568238B2B4386
:102978009BB203439BB23343134343F40063CB61DD
:1029880063E70026F0E70120704700BF00300140F0
:10299800FC5E0008C0CE0200CDCCCCCC272A0008B3
:1029A800312C00080038004000340040704708B55A
:1029B800426A03681288DA60436A02334362438DCD
:1029C800013B9BB24385438D9BB203B108BD0268AE
:1029D800536823F0A0035360012380F84130FFF7C8
:1029E800E5FFF3E7704708B50368DA68C36A1A8039
:1029F800C36A0233C362438E013B9BB24386438E54
:102A08009BB203B108BD0268536823F060035360AA
:102A1800012380F84130FFF7E5FFF3E7704710B571
:102A280084B0044602689368039390F84130DBB29F
:102A3800042B06D094F84130DBB2032B2CD004B021
:102A480010BD039B13F0010F03D0536813F0400F20
:102A58001FD1039B13F0400FECD023685A6812F083
:102A6800200FE7D05A6822F060025A6000230193D1
:102A78002368DA6801929B680193019B012384F81B
:102A88004130636C43F0020363642046FFF7C6FFDE
:102A9800D0E7FFF7A8FFDCE7039B13F0020F04D091
:102AA80023685B6813F0800F1DD1039B13F0080F98
:102AB800C5D023685A6812F0200FC0D05A6822F097
:102AC800A0025A600023029323689B680293029B2A
:102AD800012384F84130636C43F0040363642046A7
:102AE800FFF79CFFABE72046FFF761FFDDE7704784
:102AF80008B5436A9A1C426202681B88D360438DFA
:102B0800013B9BB24385438D9BB23BB90268536836
:102B180023F0A0035360438E9BB203B108BD012389
:102B280080F84130FFF7E3FFF8E7000008B50268D6
:102B3800144B9A421BD04FF04023DA68C36A991CA1
:102B4800C1621A80438E013B9BB24386438E9BB27F
:102B580063B902680B4B9A420CD04FF0402253687D
:102B680023F060035360438D9BB22BB108BDA3F5DE
:102B78008063E2E7044AF2E7012380F84130FFF777
:102B8800B6FFF3E7003800400034004008B5436A58
:102B98009A1C42621A880168124B994217D04FF06A
:102BA8004023DA60438D013B9BB24385438D9BB242
:102BB80063B902680B4B9A420CD04FF0402253681D
:102BC80023F0A0035360438E9BB22BB108BDA3F53D
:102BD8008063E6E7044AF2E7012380F84130FFF713
:102BE80086FFF3E7003800400034004008B503686A
:102BF800DA68C36A991CC1621A80438E013B9BB292
:102C08004386438E9BB23BB90268536823F0600346
:102C18005360438D9BB203B108BD012380F8413056
:102C2800FFF765FFF8E7000010B586B004460368B3
:102C38009A680592704A93426FD04FF0402291688B
:102C480004915B680393536802936368B3F5007F4C
:102C580001D0002B70D1059B13F0020F03D0039B0A
:102C680013F0800F5CD1049B13F0010F03D0029B7B
:102C780013F0400F58D1049B13F0400F24D0029B4F
:102C880013F0200F20D022685B4B9A4250D04FF0AF
:102C98004022536823F0600353602268536823F08E
:102CA800A0035360002300932368DA6800929B68AE
:102CB8000093009B012384F84130636C43F00203C6
:102CC80063642046FFF7AAFE059B13F0080F22D085
:102CD800039B13F0200F1ED02268536823F0A00333
:102CE80053602268444B9A4224D04FF040225368E4
:102CF80023F0600353600023019323689B680193CA
:102D0800019B012384F84130636C43F0040363643E
:102D18002046FFF783FE06B010BDA2F580628EE75D
:102D28002046FFF7E5FE9EE72046FFF7FFFEA2E7F5
:102D3800324AAEE7314ADAE7049B13F0020F03D0B8
:102D4800029B13F0800F4AD1059B13F0010F03D0AB
:102D5800039B13F0400F46D1059B13F0400F1CD086
:102D6800039B13F0200F18D02268536823F06003E8
:102D780053602268204B9A4239D04FF04022536862
:102D880023F0A0035360012384F84130636C43F0BF
:102D9800020363642046FFF741FE049B13F0080F0B
:102DA800B9D0029B13F0200FB5D02268124B9A427B
:102DB8001FD04FF04022536823F0A00353602268CD
:102DC800536823F060035360012384F84130636C37
:102DD80043F0040363642046FFF720FE9BE7204688
:102DE800FFF7D4FEB0E72046FFF700FFB4E7034A39
:102DF800C5E7024ADFE700BF003800400034004062
:102E0800002800F0638270B582B0044603680F2B77
:102E180039D8236813F0010F4DD063682BB1B3F58F
:102E2800803F02D0B3F5A02F32D1A54B9B6803F0A9
:102E38000C03042B36D0A24B9B6803F00C03082B21
:102E48002BD06368B3F5803F5FD0B3F5A02F62D075
:102E58009B4B1A6822F480321A601A6822F4802286
:102E68001A606368002B60D0FDF7C2FD0546944BDD
:102E78001B6813F4003F1ED1FDF7BAFD401B642800
:102E8800F5D9032027E2E8218E4802F054FCC0E778
:102E9800ED218C4802F04FFCC7E7894B5B6813F4BF
:102EA800800FCED0864B1B6813F4003F03D06368B5
:102EB800002B00F00D82236813F0020F67D0E3683F
:102EC800012B41D823691F2B44D87D4B9B6813F0F5
:102ED8000C0F4AD07A4B9B6803F00C03082B3FD0A9
:102EE800E368002B77D0784B01221A60FDF780FD4C
:102EF8000546734B1B6813F0020F63D1FDF778FD8D
:102F0800401B0228F5D90320E5E16D4A136843F414
:102F180080331360A5E76A4B1A6842F480221A606E
:102F28001A6842F480321A609BE7FDF761FD054696
:102F3800634B1B6813F4003FBDD0FDF759FD401BE0
:102F48006428F5D90320C6E140F21F115D4802F05C
:102F5800F2FBB7E74FF490715A4802F0ECFBB4E784
:102F6800574B5B6813F4800FBAD1554B1B6813F0AD
:102F7800020F04D0E368012B01D00120ABE1504AD5
:102F8800136823F0F803216943EAC1031360236837
:102F980013F0080F49D06369012B2ED8636993B3E6
:102FA8004A4B01221A60FDF723FD0546444B5B6F2F
:102FB80013F0020F39D1FDF71BFD401B0228F5D98C
:102FC800032088E13E4A136823F0F803216943EAA5
:102FD800C1031360DBE73C4B00221A60FDF708FDD4
:102FE8000546374B1B6813F0020FD0D0FDF700FDE4
:102FF800401B0228F5D903206DE14FF4B071314828
:1030080002F099FBCAE7314B00221A60FDF7F0FC89
:1030180005462B4B5B6F13F0020F06D0FDF7E8FC5B
:10302800401B0228F5D9032055E1236813F0040F4B
:1030380000F08780A368012B01D9052B38D1204BDC
:103048001B6C13F0805F39D1002301931C4B1A6C61
:1030580042F080521A641B6C03F080530193019B69
:1030680001251B4B1B6813F4807F33D0A368012B09
:1030780044D0052B48D0124B1A6F22F001021A6770
:103088001A6F22F004021A67A368002B46D0FDF7D6
:10309800AFFC06460A4B1B6F13F0020F4FD1FDF72A
:1030A800A7FC801B41F288339842F3D9032012E130
:1030B8004FF4C671034802F03EFBC0E70025D0E795
:1030C80000380240345F000800004742800E474243
:1030D80000700040834A136843F480731360FDF75F
:1030E80087FC06467F4B1B6813F4807FBED1FDF733
:1030F8007FFC801B0228F5D90320ECE07A4A136F85
:1031080043F001031367BFE7774B1A6F42F00402DD
:103118001A671A6F42F001021A67B5E7FDF768FCF3
:103128000646714B1B6F13F0020F08D0FDF760FCC9
:10313800801B41F288339842F3D90320CBE0002D5D
:103148003AD1A369022B3DD8A369002B00F0C280B5
:10315800654A926802F00C02082A00F08F80022B60
:1031680078D1E36913B1B3F5800F31D1236A3F2BCE
:1031780034D8636AC03BF02B36D8A36A022B05D03B
:10318800042B03D0062B01D0082B33D1E36A023B72
:103198000D2B35D8554B00221A60FDF729FC054642
:1031A800514B1B6813F0007F30D0FDF721FC401B0A
:1031B8000228F5D903208EE04B4A136C23F0805384
:1031C8001364BEE740F2CF11494802F0B4FABBE7F6
:1031D8004FF4EC71464802F0AEFAC7E740F2D91155
:1031E800434802F0A8FAC4E74FF4ED71404802F0F2
:1031F800A2FAC2E740F2DB113D4802F09CFAC5E7AB
:103208004FF4EE713A4802F096FAC3E7E369226A8E
:103218001343626A43EA8213A26A5208013A43EAF4
:103228000243E26A43EA02632F4A53602F4B0122AA
:103238001A60FDF7DDFB04462B4B1B6813F0007F7B
:1032480006D1FDF7D5FB001B0228F5D9032042E083
:10325800002040E0254B00221A60FDF7C9FB044618
:10326800214B1B6813F0007F06D0FDF7C1FB001B44
:103278000228F5D903202EE000202CE0012B2CD0C9
:10328800194B9B6803F48001E269914201D0012047
:1032980021E003F03F02216A8A4201D001201AE0AE
:1032A800616A47F6C0721A408A4201D0012012E0D2
:1032B80003F44032A16A8A4201D001200BE003F0F6
:1032C8007063E26A93420AD0012004E0012070474B
:1032D800012000E0002002B070BD0120FBE70020C3
:1032E800F9E700BF00700040003802406000474224
:1032F800345F0008324B9B6803F00C03042B5CD04E
:10330800082B01D02F4870472DE9F04B2C4B5A68F9
:1033180002F03F025B6813F4800F2BD0284B5B68E8
:10332800C3F388131E4600275C010025E41A65EBE9
:103338000705A90141EA9461A001001B61EB0501A1
:10334800CB0043EA5073C400A01943EB07014B02BA
:1033580043EAD0534402204619460023FCF738FFBD
:10336800174B5B68C3F3014301335B00B0FBF3F019
:10337800BDE8F08B124B5B68C3F388131E46002729
:103388005C010025E41A65EB0705A90141EA94618F
:10339800A001001B61EB0501CB0043EA5073C40098
:1033A800A01943EB07018B0243EA9053840220469D
:1033B80019460023FCF70CFFD2E70348704700BF0B
:1033C800003802400024F40000127A00002800F0BF
:1033D800FA8070B504460D460368013B0E2B11D8E0
:1033E800072D15D87A4B1B6803F00F03AB4215D293
:1033F800EBB2774A1370136803F00F03AB420DD09A
:10340800012070BD40F25121724802F094F9E7E7BB
:1034180040F252216F4802F08EF9E3E7236813F077
:10342800020F29D013F0040F04D06B4A936843F4B9
:10343800E0539360236813F0080F04D0664A93683A
:1034480043F460439360A3687BB1802B0DD0902B2D
:103458000BD0A02B09D0B02B07D0C02B05D0D02B78
:1034680003D0E02B01D0F02B33D15B4A936823F0D3
:10347800F003A1680B439360236813F0010F42D057
:103488006368032B2BD86368012B2ED09A1E012A60
:1034980032D9514A126812F0020F00F096804E4954
:1034A8008A6822F0030213438B60FDF7A1FA0646EF
:1034B800494B9B6803F00C036268B3EB820F22D080
:1034C800FDF796FA801B41F288339842F0D9032021
:1034D80097E740F275213F4802F02DF9C5E74FF410
:1034E8001F713C4802F027F9CDE73B4A126812F4F5
:1034F800003FD4D1012084E7374A126812F0007FD8
:10350800CDD101207DE7324B1B6803F00F03AB429E
:1035180009D9EAB22E4B1A701B6803F00F03AB42AD
:1035280001D001206DE7236813F0040F14D0E3687D
:103538005BB1B3F5805F08D0B3F5A05F05D0B3F5F4
:10354800C05F02D0B3F5E05F31D1234A936823F41A
:10355800E053E1680B439360236813F0080F15D01C
:1035680023695BB1B3F5805F08D0B3F5A05F05D0E0
:10357800B3F5C05F02D0B3F5E05F1ED1164A936879
:1035880023F46043216943EAC1039360FFF7B2FE65
:10359800114B9B68C3F30313104AD35CD840104BFC
:1035A8001860104B1868FDF7D9F9002029E740F298
:1035B800BA21084802F0BFF8C7E740F2C121054820
:1035C80002F0B9F8DAE701207047012019E700BFD7
:1035D800003C0240345F000800380240FC5D0008EF
:1035E8007800002054000020014B1868704700BF85
:1035F8007800002008B5FFF7F7FF044B9B68C3F37A
:103608008223034AD35CD84008BD00BF003802407B
:103618000C5E000830B583B004460368013B0E2BEE
:1036280021D8236813F0050F51D0E368023B052B1E
:103638001FD8A368C03BF02B21D86368023B3D2B01
:1036480023D8A04B00221A60FDF7D2F905469E4BFD
:103658001B6813F0006F1ED0FDF7CAF9401B022843
:10366800F5D903200DE140F6D911984802F063F826
:10367800D7E74FF41E61954802F05DF8D9E740F6A8
:10368800E111924802F057F8D7E740F6E3118F4866
:1036980002F051F8D5E76368A26843EA8213E2684A
:1036A80043EA0273884AC2F88430864B01221A60C2
:1036B800FDF79EF90546844B1B6813F0006F06D191
:1036C800FDF796F9401B0228F5D90320D9E02368B5
:1036D80013F0020F00F0CD802369B3F5807F7ED010
:1036E800B3F5007F7BD07A4A934278D002F58032D6
:1036F800934274D002F58032934270D002F5803242
:1037080093426CD002F58032934268D002F5803241
:10371800934264D002F58032934260D002F5803241
:1037280093425CD002F58032934258D002F5803241
:10373800934254D002F58032934250D002F5803241
:1037480093424CD002F58032934248D002F5803241
:10375800934244D002F58032934240D002F5803241
:1037680093423CD002F58032934238D002F5803241
:10377800934234D002F58032934230D002F5803241
:1037880093422CD002F58032934228D002F5803241
:10379800934224D002F58032934220D002F5803241
:1037A80093421CD002F58032934218D002F5803241
:1037B800934214D002F58032934210D002F5803241
:1037C80093420CD002F58032934208D002F5803241
:1037D800934204D040F612213C4801F0ACFF00238C
:1037E8000193394B1A6C42F080521A641B6C03F037
:1037F80080530193019B374A136843F48073136025
:10380800FDF7F6F80546334B1B6813F4807F06D1A5
:10381800FDF7EEF8401B0228F5D9032031E02A4BCA
:103828001B6F13F4407312D0226902F440729A425B
:103838000DD0254B1A6F22F44072274901200860E9
:10384800002008601A671B6F13F0010F1BD1236952
:1038580003F44072B2F5407F26D01B4A936823F4E4
:10386800F813936018490B6F2269C2F30B021343D4
:103878000B67236813F0080F21D0227D174B1A60BD
:10388800002003B030BDFDF7B3F805460E4B1B6FA3
:1038980013F0020FDBD1FDF7ABF8401B41F2883380
:1038A8009842F3D90320ECE707498A6822F4F81212
:1038B80023F0704323F4407313438B60D2E7002056
:1038C800DFE700BF68004742003802406C5F00082D
:1038D8000003020000700040400E4742E0114742DA
:1038E80001282CD1184B9B6813F4000303D0012B3B
:1038F80027D116487047144B5B6813F4800F15D016
:10390800114BD3F8843003F03F031148B0FBF3F0B8
:103918000D4AD2F88430C3F3881300FB03F0D2F8C1
:103928008430C3F30273B0FBF3F07047064BD3F84F
:10393800843003F03F030748B0FBF3F0E8E70020CA
:1039480070470020704700BF003802400080BB006D
:1039580000127A000024F400002800F0C88010B596
:1039680004460368634A934214D0A2F5784293420E
:1039780010D002F5806293420CD002F5784293424F
:1039880008D002F5E052934204D04FF4A1715A488E
:1039980001F0D1FE636813B1B3F5827F6BD1A368E0
:1039A8002BB1B3F5806F02D0B3F5004F69D1E3684E
:1039B800B3F5006F01D0002B69D1A369B3F5007F7F
:1039C80003D013B1B3F5802F67D1E3696BB1082B2E
:1039D8000BD0102B09D0182B07D0202B05D0282B63
:1039E80003D0302B01D0382B5DD1236A0BB1802B4B
:1039F8005FD1636A0BB1102B61D1636A33B9236954
:103A08000BB1022B61D16369012B64D80023A36237
:103A180094F85130002B64D0022384F85130226886
:103A2800136823F0400313606368A2681343E268D5
:103A380013432269134362691343A26902F40072B3
:103A48001343E2691343226A1343A16A22680B43B2
:103A58001360638B03F00403616A22680B435360AD
:103A68002268D36923F40063D361002060650123D1
:103A780084F8513010BD40F243111F4801F05BFE3D
:103A88008DE74FF4A2711C4801F055FE8FE740F214
:103A98004511194801F04FFE8FE74FF4A3711648FE
:103AA80001F049FE91E740F24711134801F043FE47
:103AB8009BE74FF4A471104801F03DFE99E740F2EE
:103AC80049110D4801F037FE97E74FF4A6710A48EF
:103AD80001F031FE97E740F24D11074801F02BFE47
:103AE80094E784F85030204601F046FE94E7012020
:103AF800704700BF00300140A85F00080023013371
:103B08000C4A934211D80269002AF8DA036943F093
:103B18000103036100230133064A934207D802696F
:103B280012F0010FF7D100207047032070470320DF
:103B3800704700BF400D030084B010B5044603A8C9
:103B480080E80E00089B012B1FD1A36B23F4803360
:103B5800A363E36823F4840323F04003E360E3688A
:103B680023F44013E3600F9B012B09D02046FFF795
:103B7800C5FF069B012B1BD0BDE8104004B0704761
:103B8800E36843F48013E360F0E7E36843F040033D
:103B9800E3602046FFF7B2FF0C9B23B9A36B43F405
:103BA8008033A363E5E7A36B23F48033A363E0E7E3
:103BB800A36843F00603A360A36843F02003A3604F
:103BC800DAE7836843F00103836000207047836865
:103BD80023F0010383600020704708B5C36823F011
:103BE800C043C360012909D069B9C36843F0804361
:103BF800C3603220FCF702FF002008BDC36843F011
:103C08000053C360F5E70120F7E70000890141F0A0
:103C18002001016100230133054A934205D8026956
:103C280012F0200FF7D1002070470320704700BF23
:103C3800400D03001023036100230133054A93421A
:103C480005D8026912F0100FF7D100207047032041
:103C5800704700BF400D030070B49DF80C4064B974
:103C680003339D0807E000EB023303F5805351F856
:103C7800046B1E600134AC42F5D3002070BC704761
:103C880003329208002393420CD210B400F58054FA
:103C9800246841F8044B01339342F7D308465DF892
:103CA800044B704708467047426980691040704766
:103CB800406900F00100704710B400F58064D0F846
:103CC800003423F00303C0F80034D0F8003401F0C6
:103CD80003021343C0F80034012905D0022907D094
:103CE80000205DF8044B70474BF680336360F7E7BC
:103CF80041F270736360F3E730B583B00446002582
:103D08000195D0F840340193019B23F02E030193D1
:103D1800019B43F48073C0F840346420FCF76EFEC6
:103D2800019B23F48073C4F840340A20FCF766FE34
:103D3800284603B030BD82B000230193D0F8403448
:103D48000193019B23F02E030193019B13F4805FE1
:103D580001D101290CD0019B13F4805F05D021B952
:103D6800019B23F48053C0F84034002002B0704710
:103D7800019B43F48053C0F84034ECE784B038B575
:103D8800044605A880E80E0025460023C4F8003E36
:103D9800A36B43F40013A363A36B23F40023A3636F
:103DA800A36B23F48023A363E36B13F4807F10D009
:103DB800079B032B06D0D4F8003423F00403C4F87F
:103DC80000340CE0D4F8003443F00403C4F80034A1
:103DD80005E0D4F8003423F00403C4F800341021BB
:103DE8002046FFF713FF2046FFF724FF002209E0D3
:103DF80005EB42134FF0FF31C3F808150021C3F853
:103E08000C150132069B9342F2D801212046FFF798
:103E180092FFC820FCF7F2FD0023A3614FF0FF33A7
:103E28006361E36B13F4807F17D04FF40073636210
:103E380003F18073A3620D4BC4F80031089B1BB9D2
:103E4800A36943F01003A361A269094B1343A3615B
:103E58000020BDE8384004B070478023636203F552
:103E6800C003A362034BC4F80031E7E70003E00096
:103E7800080020A3E000400082B000230193D0F89E
:103E8800403401930198C0F3414002B0704700F5F7
:103E98008060806880B27047F0B506469DF818408B
:103EA80000EB411505F5A0604FF0FF378760032C44
:103EB80065D8DFE804F00256021840F29D47C76053
:103EC80012F0800F09D1F76B17F4807F59D0C768BB
:103ED80047F06007C76000200CE0C76847F48077A8
:103EE800C760002006E040F29D67C76012F0800FAF
:103EF80031D1002006F5806ED6F8187401F00F0154
:103F08004FF0010C0CFA01F13943C6F81814B169E5
:103F180041F00071B16112F0800F34D100269DF894
:103F28001410022932D000219B0503F0FE53D2025F
:103F380002F4F0421343A20402F440221343BDF8F2
:103F48001C20C2F30A02134333430B43C5F8003560
:103F5800032C1ED0F0BDC76847F48077C7600020E7
:103F6800C8E740F22527C76012F0800F01D1002072
:103F7800C0E7C76847F4C077C7600020BAE70120E8
:103F8800B8E70020B6E74FF40046C8E74FF4003121
:103F9800CAE7D5F8003543F00053C5F80035D9E72E
:103FA80000F58060406980B2704710B400EB4111A1
:103FB80001F5A064D1F80035C3F381433BB3022B6C
:103FC80025D0D1F8003543F08043C1F80035D0F84A
:103FD800103413F47F0F49D1D1F8003523F0004392
:103FE800C1F80035D1F8003543F00043C1F8003579
:103FF800D1F8003523F40043C1F80035002301331C
:10400800B3F57A7F27D82268002AF8DB23E0D1F8B5
:10401800003543F08043C1F80035C36A13F47F0FBD
:104028001DD1D1F8003523F00043C1F80035D1F88F
:10403800003543F00043C1F80035D1F8003523F4CA
:104048000043C1F8003500230133B3F57A7F02D865
:104058002268002AF8DB00205DF8044B7047D1F88D
:10406800003543F00043C1F80035F4E7D1F80035D6
:1040780043F00043C1F80035EDE7000000EB4111C3
:10408800064AC1F81025D1F8003523F0804343F0E3
:104098000043C1F800350020704700BF00000880C9
:1040A80070B582B04C78C36B13F4807F07D00B795E
:1040B8002BB912B94B79012B11D0012A13D00B69F6
:1040C800E3B10D892B44013BB3FBF5F39BB2B3F588
:1040D800807F14D92D020D614FF480730FE02146C3
:1040E800FFF7CCFF75E000EB4413D3F80C5525F02F
:1040F8006005C3F80C5500234B71E0E70123CD7828
:104108001DB10D8905FB03F50D610D69C5F3120598
:10411800374E06EAC3432B438D7A6D0705F0C04539
:1041280000EB44142B43C4F8103512B1CB68C4F823
:10413800143500F58066B36813F0010FD4F8003524
:1041480023F00053C4F80035D4F800350CBF4FF005
:10415800005500252B43C4F80035D4F80055254BED
:104168001D601D6825F080451D60CB78C3B1214DC9
:104178002B6843F400432B601E4B1D6845F0004537
:104188001D601B68C4F800351ABBCB780BBB0B69E4
:10419800FBB1CA79032A14D8DFE802F0081E081E0A
:1041A800144D2B6823F400432B60E5E70333C26A00
:1041B80092B2C3F38F039A4203D2836943F0200378
:1041C8008361CC684A780B8A002100912146FFF769
:1041D80043FD002002B070BD0333326992B2C3F3CD
:1041E8008F039A42EDD2836943F080638361E8E7E5
:1041F8000000F81FAC01002070B505460446FFF723
:10420800E6FC10212846FFF701FD2846FFF712FDBE
:1042180000220AE004EB4211D1F8003523F0802394
:1042280043F08043C1F8003501320F2AF2D900204B
:10423800034600E001300F2813D804EB401606F5BA
:10424800A061D6F8002522F4004242F04042C6F8A8
:1042580000250133B3F57A7FECD80A68002AF8DB29
:10426800E8E74FF0FF33C5F814346B612846FFF7D1
:10427800A8FC002070BD0020704708B521220274F8
:10428800202242740022428282820722C28200F0E7
:104298002AFE08BD08B5A122027421224274002218
:1042A800428282820722C28200F01DFE08BD38B514
:1042B8000446D0F87833D9694031FFF7EBFF05465B
:1042C80020B9D4F8C833022120469847284638BD7B
:1042D80038B50546D0F87833DC69217879B9217B7F
:1042E800B1B9617BF1B9D5F87833D86928B101F053
:1042F800ABFCD5F878330022DA61002038BD00F035
:1043080045FF2178284600F057FF00232370E6E791
:10431800284600F03BFF217B284600F04DFF002394
:104328002373DEE7284600F031FF617B284600F062
:1043380043FF00236373D6E770B584B004460123B6
:104348000222114600F0A1FAFF2800F0A1800646DB
:104358000146204600F08FFAD4F87853502001F037
:104368006BFCE861D4F87833DD691A2303FB064354
:1043780093F84A3313F0800F72D16978204600F021
:104388000AFF0146287094F81C336A7868890290FD
:104398000320019094F81D030090204600F0E6FEEB
:1043A80000222978204601F079FB00231A460A21C9
:1043B800204600F06AFAFF286CD01A2303FB00435A
:1043C80093F84A3313F0800F52D1AB731A2303FBCF
:1043D8000043B3F84C332B831A2303FB004393F8B1
:1043E800523313F0800F4BD1AB731A2303FB0040F9
:1043F800B0F854332B83A97B204600F0CCFE6873B9
:10440800E97B204600F0C7FE287394F81C33AA7B8A
:10441800697B288B02900226019694F81D03009070
:10442800204600F0A3FE94F81C33EA7B297B688BB6
:104438000290019694F81D030090204600F096FE25
:10444800002685F84C603246697B204601F026FB41
:104458003246297B204601F021FB304604B070BD6E
:104468006B701A2303FB0646B6F84C336B8184E75E
:10447800EB731A2303FB0043B3F84C336B83ABE7AE
:10448800EB731A2303FB0040B0F854336B83B2E795
:104498000220E3E70220E1E7704730B583B0054624
:1044A800D0F87833DC6994F84D30012B03D0022B17
:1044B80019D003B030BD606A228B90420AD9637B61
:1044C800E16901200090284600F018FE022384F8D4
:1044D8004D30EEE7637BE1690122009282B2284603
:1044E80000F00CFEF2E7617B01F0C4FA012805D068
:1044F8000228DED1012384F84D30DAE7636A228B83
:1045080093420AD99B1A6362E3691A44E261636AB7
:1045180033B1012384F84D30CBE700236362F6E71B
:10452800002384F84D302846FFF7B6FFC1E77047EF
:1045380038B50546D0F87833DC6994F84E30032B4B
:1045480002D0042B09D038BD237B628B216A00F08E
:10455800EBFD042384F84E30F5E7217B01F08AFA5D
:104568000128F0D1217B284601F07EFAA36A834214
:1045780002D0628B824206D3002384F84E3028464C
:10458800FFF7D5FFDFE71B1AA362236A18442062EE
:10459800032384F84E30D6E7704738B50546D0F87F
:1045A8007833DC6994F84C30042B04D8DFE803F046
:1045B8004C05163C4300012347E0A16CFFF75DFE64
:1045C800034630B1012840D0042384F84C3001233D
:1045D8003BE0022384F84C30012336E004F140012B
:1045E800FFF758FE0346C0B9002384F84C30636CCB
:1045F80023F07F42A16C4B6823F07F439A4201D09D
:10460800012322E0226C0B689A4201D001231CE0AE
:104618002846FFF7C1FF012317E0012815D004231E
:1046280084F84C30012310E0FFF737FF2846FFF7E6
:104638007FFF012309E0002100F017FD38B90023AE
:1046480084F84C30012300E00023184638BD0123CC
:10465800FBE7002305E003F1E002002140F8221007
:1046680001330E2BF7D9002304E0C218002182F889
:104678001C110133B3F5007FF7D300230370437097
:1046880001228270C0F8BC330276402181714376E2
:1046980080F81C3380F81D231846704708B5037846
:1046A800DBB20B2B00D008BDD0F87833002BFAD042
:1046B8009B699847F7E770B584B004464378072BA1
:1046C80000F2A480DFE803F0042C355E6770819265
:1046D800082100F04DFC18B10125284604B070BD32
:1046E80094F82923A2710125657094F81C33217967
:1046F80002920026019694F81D23009280222046FB
:1047080000F034FD94F81C336179A2790292019685
:1047180094F81D2300923246204600F027FDDCE77E
:10472800122100F025FC002872D1022363700125B4
:10473800D3E7012100F066FC08B10125CDE702208E
:1047480001F0C5F9012584F81C530323637021790E
:10475800A37902930026019694F81D3300932B4603
:104768008022204600F002FD94F81C336179A2797A
:104778000292019694F81D2300923246204600F0DA
:10478800F5FCAAE7092100F00CFC002842D104231B
:1047980063700125A1E7B0F8361300F002FCD8BB1E
:1047A80005236370012598E790F8301319B906239B
:1047B8004370012591E7FF2300F58E7200F00AFC93
:1047C80060BB06236370012587E790F8311319B998
:1047D80007234370012580E7FF2300F58E7200F060
:1047E800F9FBE8B907236370012576E790F83213DF
:1047F80009B9002571E7FF2300F58E7200F0EAFB86
:10480800054600283FF469AF012566E7012564E7FE
:10481800012562E7012560E701255EE701255CE7E0
:1048280001255AE798B138B504460D4680F8C023EB
:104838000023C0F87833C0F87C33FFF70AFF0DB1C6
:10484800C4F8C853204601F0D7F8002038BD02202C
:1048580070470A4659B1D0F87C3353B9591CC0F88F
:104868007C13DC3300EB8300426000207047022099
:1048780070470220704790F838338B4203D980F88C
:104888002013002070470220704770B406460020AD
:104898000AE01A2404FB056595F845439C421AD0A2
:1048A800FF2B18D0441CE0B2012813D805461A245F
:1048B80004FB006494F843438C4201D0FF29F1D1F2
:1048C8001A2404FB056494F844439442E1D0FF2A77
:1048D800E8D1DEE7FF2070BC704710B5044601F050
:1048E80003F90121204601F0CBF8002010BDC0F8E3
:1048F800BC13704708B5D0F8BC330133C0F8BC33DB
:10490800FFF7CCFE08BD012380F81F337047002352
:1049180080F81F33704790F81F03704730B587B091
:10492800044602238DF81730FFF7F5FF38B92378CE
:104938002BB12378DBB2032B01D003232370237818
:10494800DBB20B2B4AD8DFE803F006131AD0494C28
:10495800B55E687283C794F81E33002B3ED00123DE
:104968002370C82001F0B3F8204601F0CDF835E0F7
:1049780094F81F33012B31D1022323702EE06420D9
:1049880001F0A5F8204601F061F884F81D0305231D
:1049980023700021204600F0FEFB60718021204634
:1049A80000F0F9FB0146207194F81C33A2790292B9
:1049B8000025019594F81D2300928022204600F0DE
:1049C800D5FB94F81C336179A2790292019594F889
:1049D8001D2300922A46204600F0C8FB002007B09D
:1049E80030BD2046FFF767FE0028F7D1002384F882
:1049F800203394F83333012B02D007232370EDE7DB
:104A080008232370EAE7D4F8C833002BE6D0012145
:104A18002046984708232370E0E794F83913204686
:104A280000F001FB0028D9D109232370D6E794F8B8
:104A38003B3313F0200F02D10A232370CEE7012164
:104A4800204600F001FB0028C8D10A232370C5E7DF
:104A5800D4F87C33002BC1D00023C4F8783373B169
:104A6800D4F878331BB39B6820469847E0B90623EF
:104A78002370D4F8C833032120469847AEE703F1E2
:104A8800DC0204EB82025268117994F843239142C4
:104A980002D00133DBB2E2E703F1DC0204EB82026D
:104AA8005268C4F87823F4E70D23237096E70D23A2
:104AB800237093E7D4F878335BB11B692046984795
:104AC8008DF817009DF81730002B87D10B23237022
:104AD80084E70D23237081E7D4F87833002B3FF463
:104AE8007DAF5B692046984778E72046FFF7B1FD20
:104AF800D4F87833002B3FF471AFDB682046984731
:104B08000023C4F8783369E708B503784BB9012363
:104B180080F81E33D0F8C8330BB104219847002021
:104B280008BD90F81F33012BF9D102230370F6E773
:104B380010B5044600F0E0FF2179204600F03CFB68
:104B48006179204600F038FB002384F81E33D4F83E
:104B5800C83313B1052120469847204600F0C4FF0A
:104B680003232370002010BD10B40B7803704B781A
:104B780043708B78CC7843EA042343800B79037124
:104B88004B7943718B798371CB79C371082A16D914
:104B98000B7A4A7A43EA022303818B7ACA7A43EA78
:104BA800022343810B7B4A7B43EA022383818B7B6D
:104BB8008373CB7BC3730B7C03744B7C43745DF8AA
:104BC800044B70470B7803704B7843708B78837075
:104BD800CB78C3700B7903714B7943718B798371EF
:104BE800CB79C3710B7A037270470B7803704B78DB
:104BF80043708B788370CB78C3700B794A7943EA1A
:104C0800022383808B79837170474378032B00D00C
:104C180070470378023B9A4228BF1A4692B2002393
:104C280093420DD210B4C418A47801F8014B023392
:104C38009BB29342F7D300230B705DF8044B704787
:104C480000230B70704730B583B00446037E013BE8
:104C58000A2B00F2DA80DFE803F0061037435664C7
:104C6800808C9FADC400427900F1100100F00FFA6A
:104C780002232376012003B030BD417900F0FAFE0B
:104C8800012805D004281BD0022819D00120F2E7FA
:104C9800237CE28A4AB113F0800F03D105232376DF
:104CA8000120E8E703232376E5E713F0800F03D11B
:104CB800072323760120DEE7092323760120DAE79C
:104CC8000B2323760120D6E7D0F8BC33C3810379C0
:104CD8008289816800F002FA042323760120CAE75A
:104CE800017900F0C7FE012806D0052800F08F8062
:104CF800042804D00120BEE709232376F5E70B2317
:104D080023760120B7E743798289012500958168D8
:104D180000F0CEF9D4F8BC33E38106232376284685
:104D2800A9E7417900F0A6FE012807D0052808D098
:104D380002280AD004280CD001209CE707232376F8
:104D480099E70C232376032095E705232376012092
:104D580091E70B23237602208DE703790022114681
:104D680000F0BCF9D4F8BC33E38108232376012092
:104D780081E7017900F07EFE012805D0042807D0DC
:104D8800052846D0012076E70D232376002072E718
:104D98000B23237601206EE7437901250095002235
:104DA800114600F085F9D4F8BC33E3810A23237651
:104DB800284660E7417900F05DFE012805D0022809
:104DC80007D0042809D0012055E70D2323760020B9
:104DD80051E70923237601204DE70B232376012091
:104DE80049E7437E0133DBB24376022B07D9D0F87B
:104DF800C833062198470023637602203BE700F07A
:104E08007BFE01202076A07035E7012033E70320E0
:104E180031E703202FE703780A8813440B800378CF
:104E2800184470472DE9F04182B00C460B780370A6
:104E38004B7843708B78C97843EA01234380237900
:104E4800037163794371A3798371E379C371237A19
:104E58000372092A44D905460923ADF8063000260D
:104E6800012E3DD86A88BDF806309A4238D90DF12E
:104E780006012046FFF7CFFF04464378042BEFD105
:104E8800B0461A2000FB06F00830284421460230BC
:104E9800FFF798FE00271A2303FB08539B7BBB42AE
:104EA8001BD96A88BDF806309A4216D90DF1060159
:104EB8002046FFF7B0FF04464378052BEBD10137B6
:104EC8001A2000FB08F000EBC700083028442146F0
:104ED8000430FFF78AFEFFB2DDE70136F6B2BFE71E
:104EE80002B0BDE8F0818378012B03D0022B09D0F2
:104EF800012305E08160828101230376022282700A
:104F08001846704710B50446FFF79DFE034630B1BA
:104F180003280AD0022806D10122A27003E0012248
:104F2800A27000222276184610BD0122A27000222B
:104F38002276F8E738B5BDF810508478012C04D0F3
:104F48002A461946FFF7CFFF38BD61F07F04047485
:104F580006214174428202F47F44B4F5407F03D0B5
:104F680000228282C582EBE740F209428282F9E799
:104F7800F0B583B0044600F58E750E4600912B46B9
:104F88004FF480720021FFF7D5FF074610B138466D
:104F980003B0F0BD3246294604F22230FFF7E4FDA3
:104FA800F5E7F0B583B004460E4600F11C05009104
:104FB8002B464FF400720021FFF7BCFF074610B1E3
:104FC800384603B0F0BD3246294604F54D70FFF768
:104FD80029FFF5E7F0B583B017461D4600F58E7436
:104FE8000093234641F440720021FFF7A3FF0646D1
:104FF80010B1304603B0F0BD2A4639462046FFF7C7
:1050080004FEF6E708B58378012B04D00022114688
:10501800FFF769FF08BD002303740522427441822B
:105028008382C382F2E708B58378012B04D000227B
:105038001146FFF758FF08BD002303740922427484
:1050480041828382C382F2E708B58378012B04D0BA
:1050580000221146FFF747FF08BD0023037403220F
:10506800427441828382C382F2E708B58378012BB8
:1050780004D000221146FFF736FF08BD022303744F
:1050880001234374002343828182C382F1E730B550
:1050980085B01546002403940823029301910094D7
:1050A80023462246294600F052FD204605B030BD71
:1050B80030B585B00C4619469DF8203090F81D5340
:1050C80005B1002303930292019401230093002366
:1050D8001A4600F03CFD002005B030BD30B585B063
:1050E8001D46002403940292019101220092234656
:1050F800294600F02CFD204605B030BD30B585B0FE
:105108000C4619469DF8203090F81D5305B1002330
:10511800039302920194012300930223002200F0DA
:1051280016FD002005B030BD30B585B01D46002401
:10513800039402920191012200920223294600F071
:1051480006FD204605B030BD00230A2B0BD803F11D
:10515800E00250F8222012F4004F02D00133DBB2F3
:10516800F3E798B270474FF6FF70704710B584B0F8
:10517800BDF8204002949DF81C4001949DF8184009
:10518800009400F0C9FC002004B010BD08B500F080
:10519800D6FC002008BD38B505460C46FFF7D4FFFD
:1051A8004FF6FF73984205D044F4004400F1E00341
:1051B80045F82340C0B238BD0A2906D8E03150F876
:1051C8002130C3F30E0340F821300020704700005F
:1051D8002DE9F0478CB000240794089409940A94A8
:1051E8000B940194614B1A6B42F010021A631A6B0C
:1051F80002F010020192019A02941A6B42F0040222
:105208001A631A6B02F004020292029A03941A6B50
:1052180042F080021A631A6B02F080020392039A2A
:1052280004941A6B42F001021A631A6B02F001022D
:105238000492049A05941A6B42F002021A631A6BDC
:1052480002F002020592059A06941A6B42F00802CF
:105258001A631B6B03F008030693069B444F224610
:1052680008213846FBF764FEDFF80C91012211464D
:105278004846FBF75DFEDFF8048122464FF2100135
:105288004046FBF755FE042307930894099407A9A1
:105298003846FBF759FC082307930125089509941C
:1052A8000A9407A93846FBF74FFC32230793DFF827
:1052B800D0A0CDF820A0099407A93846FBF744FCF4
:1052C8004FF6C173079303260896099407A9384631
:1052D800FBF73AFC42F6723307930896099407A93C
:1052E8004846FBF731FC0795089509940A9407A9E5
:1052F8004846FBF729FC0795CDF820A00994A7F5A7
:10530800805707A93846FBF71FFC48F20E1307938E
:105318000896099407A93846FBF716FC4EF2B7130E
:1053280007930896099407A91248FBF70DFC40F665
:10533800CF7307930896099407A94046FBF704FC26
:105348004FF210030793089509940A9407A9404659
:10535800FBF7FAFB202307930894099407A9404612
:10536800FBF7F2FB0CB0BDE8F08700BF0038024045
:10537800001002400004024000080240000C0240F5
:105388000000121008B50B480B4B03600B4B436031
:1053980000238360C3604FF48042026143618361EC
:1053A800C3610362FCF7F2FD00B908BD00F0C2F961
:1053B800FBE700BFC801002000540040A0860100A0
:1053C80030B589B00023039304930593069307939C
:1053D8000268144B9A4201D009B030BD00250195EE
:1053E800114C236B43F002032363236B03F0020386
:1053F8000193019B4FF41073039312230493012329
:1054080005930423079303A90848FBF79DFB02951E
:10541800236C43F400132364236C03F400130293F6
:10542800029BD9E7005400400038024000040240C3
:1054380008B50268074B9A4200D008BD064A136CAB
:1054480023F4001313644FF410710448FBF7D2FCE3
:10545800F3E700BF00540040003802400004024057
:1054680008B50B480B4B03604FF4007343600023EF
:105478008360C3600361084A42618361C361012399
:105488000362FDF73FF900B908BD00F053F9FBE7E7
:105498001C020020003800400077010008B50B48C6
:1054A8000B4B03604FF40072426000238360C360BB
:1054B8000261084A42618361C3610362FDF722F910
:1054C80000B908BD00F036F9FBE700BF6402002010
:1054D800003C004000770100F0B58DB00023079331
:1054E800089309930A930B930368404A934204D0A4
:1054F8003F4A934243D00DB0F0BD002401943D4B88
:105508001A6C42F480421A641A6C02F480420192C6
:10551800019A02941A6B42F004021A631A6B02F0A1
:1055280004020292029A03941A6B42F002021A636E
:105538001B6B03F002030393039B042307930225C9
:10554800089506230B932C4F07A93846FBF7FCFA5E
:1055580008230793089509940A9405260B9607A92A
:105568003846FBF7F1FA4FF4A053079308950994CE
:105578000A940B9607A92148FBF7E6FABBE7002433
:1055880004941C4B1A6C42F400421A641A6C02F41C
:1055980000420492049A05941A6B42F001021A63BD
:1055A8001A6B02F001020592059A06941A6B42F0F2
:1055B80004021A631B6B03F004030693069B102373
:1055C80007930226089606250B9507A90C48FBF7B2
:1055D800BBFA4FF4A4530793089609940A940B95C1
:1055E80007A90548FBF7B0FA85E700BF0038004077
:1055F800003C00400038024000080240000402401D
:105608000000024070B59AB0302200210EA800F0C8
:1056180023FB002409940A940B940C940D9403948E
:105628000494059406940794089401941F4B1A6CEB
:1056380042F080521A641B6C03F080530193019B63
:1056480002941B4B1A6842F440421A601B6803F428
:1056580040430293029B01260E964FF480330F932A
:10566800022514954FF48003159304231693C02242
:1056780017921893082319930EA8FDF7C1FB0F235F
:1056880009930A950B944FF4A0530C930D9403219E
:1056980009A8FDF79BFE0396C823059305230493E9
:1056A800069503A8FDF7B6FF1AB070BD0038024092
:1056B8000070004000B583B0FBF774F9FFF7A2FF54
:1056C800FFF786FDFFF75EFEFFF7CAFEFFF7E6FE6F
:1056D80000F032F800F0FAF8FBF70CF98DF8070043
:1056E8009DF8073023B900230093ADF804300EE08D
:1056F80001224FF480410E48FBF71AFCFEE7012215
:105708004FF400510A48FBF713FC00F0FFF8684615
:10571800FBF70AF9BDF90030002BF0DCBDF90230C7
:10572800002BECDCBDF90430002BE8DCEDE700BF12
:10573800000C02407047704708B50D480D4B0360D8
:105748004FF48273436000238360C3600361436145
:105758004FF400728261C3610362436283620A2369
:10576800C362FEF7F9F800B908BDFFF7E3FFFBE7EE
:10577800AC0200200030014000B589B0002303933B
:1057880004930593069307930268154B9A4202D037
:1057980009B05DF804FB0021019103F584335A6CCC
:1057A80042F480525A645A6C02F480520192019A6F
:1057B80002911A6B42F001021A631B6B03F001039A
:1057C8000293029BE023039302230493032306938B
:1057D8000523079303A90348FBF7B6F9D8E700BFE9
:1057E800003001400000024082B0002100910B4BC4
:1057F8005A6C42F480425A645A6C02F48042009215
:10580800009A01911A6C42F080521A641B6C03F0E2
:1058180080530193019B02B0704700BF00380240DB
:105828007047FEE7FEE7FEE7FEE770477047704700
:1058380008B5FBF7D1F808BD08B50248FCF773F8BE
:1058480008BD00BFD006002008B503460B4A126801
:1058580042B10A4A106803446A46934206D8074A86
:10586800136008BD054A06491160F2E700F0BAF96D
:105878000C2303604FF0FF30F3E700BFB0010020B6
:1058880098090020054BD3F8882042F47002C3F829
:1058980088204FF000629A60704700BF00ED00E07A
:1058A80004290CD0052902D0022904D07047064BE0
:1058B80003221A707047044B02221A707047024B79
:1058C80001221A70F2E700BFB801002008B50122D2
:1058D8000B490C48FEF7A6FF48B90B490948FEF7E3
:1058E800B8FF38B90748FEF7F8FF30B908BDFFF729
:1058F80021FFF2E7FFF71EFFF4E7FFF71BFFF5E7CD
:10590800A9580008040300205800002008B50248E0
:10591800FFF704F808BD00BF04030020F0B589B004
:105928000023039304930593069307930368B3F145
:10593800A04F01D009B0F0BD002501951C4C236B88
:1059480043F001032363236B03F001030193019BDD
:1059580008AE4FF4007346F8143D164F31463846EA
:10596800FBF7F2F84FF4E0530393022304930595F1
:10597800032306930A23079331463846FBF7E4F8D6
:10598800636B43F0800363630295636C43F4804365
:105998006364636C03F480430293029B2A4629469E
:1059A8004320FBF75DF84320FBF7A0F8C2E700BFF0
:1059B800003802400000024008B5D0F8C002FEF7E7
:1059C80099FF08BD08B5D0F8C002FFF79DF808BDDB
:1059D80008B5D0F8C002FFF7ABF808BD704708B5A6
:1059E800D0F8C002FEF78FFF08BD08B5D0F8C00296
:1059F800FEF78DFF08BD000090F8C033012B01D0E1
:105A08000020704710B504460F48C0F8C042C4F8DB
:105A1800C4034FF0A0430360082383600123C360DD
:105A28000023036102228261C361FBF73DFB40B999
:105A38000548FCF756F801462046FEF758FF0020B7
:105A480010BDFFF777FEF3E7D006002008B5D0F8C1
:105A5800C403FCF74BF818B1022803D0012008BD95
:105A68000020FCE70220FAE708B5D0F8C403FCF7E9
:105A780032F808BD08B5D0F8C403FCF725F808BD0E
:105A880008B590F8C033012B04D0C820FAF7B6FF48
:105A9800002008BD084600F06FF8F6E710B4D0F80B
:105AA800C43301EB8104E0000446184490F83B003D
:105AB80048B901EB8101C800034483F85120002054
:105AC8005DF8044B7047234483F85020F7E708B586
